{
  "contractName": "TicketSale",
  "abi": [
    {
      "inputs": [
        {
          "internalType": "uint256",
          "name": "numTickets",
          "type": "uint256"
        },
        {
          "internalType": "uint256",
          "name": "price",
          "type": "uint256"
        }
      ],
      "stateMutability": "nonpayable",
      "type": "constructor"
    },
    {
      "inputs": [],
      "name": "manager",
      "outputs": [
        {
          "internalType": "address",
          "name": "",
          "type": "address"
        }
      ],
      "stateMutability": "view",
      "type": "function"
    },
    {
      "inputs": [
        {
          "internalType": "address",
          "name": "",
          "type": "address"
        }
      ],
      "name": "ownerToTicket",
      "outputs": [
        {
          "internalType": "uint256",
          "name": "",
          "type": "uint256"
        }
      ],
      "stateMutability": "view",
      "type": "function"
    },
    {
      "inputs": [
        {
          "internalType": "uint256",
          "name": "",
          "type": "uint256"
        }
      ],
      "name": "resaleTickets",
      "outputs": [
        {
          "internalType": "uint256",
          "name": "",
          "type": "uint256"
        }
      ],
      "stateMutability": "view",
      "type": "function"
    },
    {
      "inputs": [
        {
          "internalType": "uint256",
          "name": "",
          "type": "uint256"
        }
      ],
      "name": "swapOffers",
      "outputs": [
        {
          "internalType": "address",
          "name": "",
          "type": "address"
        }
      ],
      "stateMutability": "view",
      "type": "function"
    },
    {
      "inputs": [
        {
          "internalType": "uint256",
          "name": "",
          "type": "uint256"
        }
      ],
      "name": "ticketOwners",
      "outputs": [
        {
          "internalType": "address",
          "name": "",
          "type": "address"
        }
      ],
      "stateMutability": "view",
      "type": "function"
    },
    {
      "inputs": [],
      "name": "ticketPrice",
      "outputs": [
        {
          "internalType": "uint256",
          "name": "",
          "type": "uint256"
        }
      ],
      "stateMutability": "view",
      "type": "function"
    },
    {
      "inputs": [],
      "name": "totalTickets",
      "outputs": [
        {
          "internalType": "uint256",
          "name": "",
          "type": "uint256"
        }
      ],
      "stateMutability": "view",
      "type": "function"
    },
    {
      "inputs": [
        {
          "internalType": "uint256",
          "name": "ticketId",
          "type": "uint256"
        }
      ],
      "name": "buyTicket",
      "outputs": [],
      "stateMutability": "payable",
      "type": "function"
    },
    {
      "inputs": [
        {
          "internalType": "address",
          "name": "person",
          "type": "address"
        }
      ],
      "name": "getTicketOf",
      "outputs": [
        {
          "internalType": "uint256",
          "name": "",
          "type": "uint256"
        }
      ],
      "stateMutability": "view",
      "type": "function"
    },
    {
      "inputs": [
        {
          "internalType": "uint256",
          "name": "ticketId",
          "type": "uint256"
        }
      ],
      "name": "offerSwap",
      "outputs": [],
      "stateMutability": "nonpayable",
      "type": "function"
    },
    {
      "inputs": [
        {
          "internalType": "uint256",
          "name": "partnerTicketId",
          "type": "uint256"
        }
      ],
      "name": "acceptSwap",
      "outputs": [],
      "stateMutability": "nonpayable",
      "type": "function"
    },
    {
      "inputs": [
        {
          "internalType": "uint256",
          "name": "price",
          "type": "uint256"
        }
      ],
      "name": "resaleTicket",
      "outputs": [],
      "stateMutability": "nonpayable",
      "type": "function"
    },
    {
      "inputs": [
        {
          "internalType": "uint256",
          "name": "ticketId",
          "type": "uint256"
        }
      ],
      "name": "acceptResale",
      "outputs": [],
      "stateMutability": "payable",
      "type": "function"
    },
    {
      "inputs": [],
      "name": "checkResale",
      "outputs": [
        {
          "internalType": "uint256[]",
          "name": "",
          "type": "uint256[]"
        },
        {
          "internalType": "uint256[]",
          "name": "",
          "type": "uint256[]"
        }
      ],
      "stateMutability": "view",
      "type": "function"
    }
  ],
  "bytecode": "0x608060405234801562000010575f80fd5b50604051620018d2380380620018d28339818101604052810190620000369190620000c7565b335f806101000a81548173ffffffffffffffffffffffffffffffffffffffff021916908373ffffffffffffffffffffffffffffffffffffffff160217905550806001819055508160028190555050506200010c565b5f80fd5b5f819050919050565b620000a3816200008f565b8114620000ae575f80fd5b50565b5f81519050620000c18162000098565b92915050565b5f8060408385031215620000e057620000df6200008b565b5b5f620000ef85828601620000b1565b92505060206200010285828601620000b1565b9150509250929050565b6117b8806200011a5f395ff3fe6080604052600436106100dc575f3560e01c806367dd74ca1161007e578063a3c1a1fe11610058578063a3c1a1fe146102ac578063c4a4be83146102d4578063dd11247e146102ff578063eb2dbcf614610329576100dc565b806367dd74ca14610238578063943ba21214610254578063a13f1c6214610270576100dc565b80633642d9d3116100ba5780633642d9d31461016e578063406b2c2c146101aa578063481c6a75146101d2578063675b2e74146101fc576100dc565b80630412f4ab146100e05780631209b1f61461011c5780631bf3300414610146575b5f80fd5b3480156100eb575f80fd5b5061010660048036038101906101019190610fd7565b610365565b604051610113919061101a565b60405180910390f35b348015610127575f80fd5b506101306103ab565b60405161013d919061101a565b60405180910390f35b348015610151575f80fd5b5061016c6004803603810190610167919061105d565b6103b1565b005b348015610179575f80fd5b50610194600480360381019061018f9190610fd7565b610699565b6040516101a1919061101a565b60405180910390f35b3480156101b5575f80fd5b506101d060048036038101906101cb919061105d565b6106ae565b005b3480156101dd575f80fd5b506101e661079e565b6040516101f39190611097565b60405180910390f35b348015610207575f80fd5b50610222600480360381019061021d919061105d565b6107c1565b60405161022f919061101a565b60405180910390f35b610252600480360381019061024d919061105d565b6107d6565b005b61026e6004803603810190610269919061105d565b610a1b565b005b34801561027b575f80fd5b506102966004803603810190610291919061105d565b610d19565b6040516102a39190611097565b60405180910390f35b3480156102b7575f80fd5b506102d260048036038101906102cd919061105d565b610d49565b005b3480156102df575f80fd5b506102e8610db1565b6040516102f6929190611167565b60405180910390f35b34801561030a575f80fd5b50610313610f43565b604051610320919061101a565b60405180910390f35b348015610334575f80fd5b5061034f600480360381019061034a919061105d565b610f49565b60405161035c9190611097565b60405180910390f35b5f60045f8373ffffffffffffffffffffffffffffffffffffffff1673ffffffffffffffffffffffffffffffffffffffff1681526020019081526020015f20549050919050565b60015481565b5f60035f8381526020019081526020015f205f9054906101000a900473ffffffffffffffffffffffffffffffffffffffff1690505f6103ef33610365565b90505f8103610433576040517f08c379a000000000000000000000000000000000000000000000000000000000815260040161042a906111f6565b60405180910390fd5b5f73ffffffffffffffffffffffffffffffffffffffff168273ffffffffffffffffffffffffffffffffffffffff16036104a1576040517f08c379a00000000000000000000000000000000000000000000000000000000081526004016104989061125e565b60405180910390fd5b8173ffffffffffffffffffffffffffffffffffffffff1660055f8581526020019081526020015f205f9054906101000a900473ffffffffffffffffffffffffffffffffffffffff1673ffffffffffffffffffffffffffffffffffffffff161461053f576040517f08c379a0000000000000000000000000000000000000000000000000000000008152600401610536906112c6565b60405180910390fd5b8160035f8381526020019081526020015f205f6101000a81548173ffffffffffffffffffffffffffffffffffffffff021916908373ffffffffffffffffffffffffffffffffffffffff1602179055503360035f8581526020019081526020015f205f6101000a81548173ffffffffffffffffffffffffffffffffffffffff021916908373ffffffffffffffffffffffffffffffffffffffff1602179055508260045f3373ffffffffffffffffffffffffffffffffffffffff1673ffffffffffffffffffffffffffffffffffffffff1681526020019081526020015f20819055508060045f8473ffffffffffffffffffffffffffffffffffffffff1673ffffffffffffffffffffffffffffffffffffffff1681526020019081526020015f208190555060055f8481526020019081526020015f205f6101000a81549073ffffffffffffffffffffffffffffffffffffffff0219169055505050565b6004602052805f5260405f205f915090505481565b3373ffffffffffffffffffffffffffffffffffffffff1660035f8381526020019081526020015f205f9054906101000a900473ffffffffffffffffffffffffffffffffffffffff1673ffffffffffffffffffffffffffffffffffffffff161461074c576040517f08c379a00000000000000000000000000000000000000000000000000000000081526004016107439061132e565b60405180910390fd5b3360055f8381526020019081526020015f205f6101000a81548173ffffffffffffffffffffffffffffffffffffffff021916908373ffffffffffffffffffffffffffffffffffffffff16021790555050565b5f8054906101000a900473ffffffffffffffffffffffffffffffffffffffff1681565b6006602052805f5260405f205f915090505481565b5f811180156107e757506002548111155b610826576040517f08c379a000000000000000000000000000000000000000000000000000000000815260040161081d90611396565b60405180910390fd5b5f73ffffffffffffffffffffffffffffffffffffffff1660035f8381526020019081526020015f205f9054906101000a900473ffffffffffffffffffffffffffffffffffffffff1673ffffffffffffffffffffffffffffffffffffffff16146108c4576040517f08c379a00000000000000000000000000000000000000000000000000000000081526004016108bb906113fe565b60405180910390fd5b5f60045f3373ffffffffffffffffffffffffffffffffffffffff1673ffffffffffffffffffffffffffffffffffffffff1681526020019081526020015f205414610943576040517f08c379a000000000000000000000000000000000000000000000000000000000815260040161093a90611466565b60405180910390fd5b6001543414610987576040517f08c379a000000000000000000000000000000000000000000000000000000000815260040161097e906114ce565b60405180910390fd5b3360035f8381526020019081526020015f205f6101000a81548173ffffffffffffffffffffffffffffffffffffffff021916908373ffffffffffffffffffffffffffffffffffffffff1602179055508060045f3373ffffffffffffffffffffffffffffffffffffffff1673ffffffffffffffffffffffffffffffffffffffff1681526020019081526020015f208190555050565b5f60065f8381526020019081526020015f205490505f60035f8481526020019081526020015f205f9054906101000a900473ffffffffffffffffffffffffffffffffffffffff1690505f8211610aa6576040517f08c379a0000000000000000000000000000000000000000000000000000000008152600401610a9d90611536565b60405180910390fd5b813414610ae8576040517f08c379a0000000000000000000000000000000000000000000000000000000008152600401610adf9061159e565b60405180910390fd5b5f60045f3373ffffffffffffffffffffffffffffffffffffffff1673ffffffffffffffffffffffffffffffffffffffff1681526020019081526020015f205414610b67576040517f08c379a0000000000000000000000000000000000000000000000000000000008152600401610b5e90611466565b60405180910390fd5b5f600a83610b759190611616565b90505f8184610b849190611646565b90508273ffffffffffffffffffffffffffffffffffffffff166108fc8290811502906040515f60405180830381858888f19350505050158015610bc9573d5f803e3d5ffd5b505f8054906101000a900473ffffffffffffffffffffffffffffffffffffffff1673ffffffffffffffffffffffffffffffffffffffff166108fc8390811502906040515f60405180830381858888f19350505050158015610c2c573d5f803e3d5ffd5b503360035f8781526020019081526020015f205f6101000a81548173ffffffffffffffffffffffffffffffffffffffff021916908373ffffffffffffffffffffffffffffffffffffffff1602179055508460045f3373ffffffffffffffffffffffffffffffffffffffff1673ffffffffffffffffffffffffffffffffffffffff1681526020019081526020015f208190555060065f8681526020019081526020015f205f905560045f8473ffffffffffffffffffffffffffffffffffffffff1673ffffffffffffffffffffffffffffffffffffffff1681526020019081526020015f205f90555050505050565b6005602052805f5260405f205f915054906101000a900473ffffffffffffffffffffffffffffffffffffffff1681565b5f610d5333610365565b90505f8103610d97576040517f08c379a0000000000000000000000000000000000000000000000000000000008152600401610d8e906116c3565b60405180910390fd5b8160065f8381526020019081526020015f20819055505050565b6060805f80600190505b6002548111610dff575f60065f8381526020019081526020015f20541115610dec578180610de8906116e1565b9250505b8080610df7906116e1565b915050610dbb565b505f8167ffffffffffffffff811115610e1b57610e1a611728565b5b604051908082528060200260200182016040528015610e495781602001602082028036833780820191505090505b5090505f8267ffffffffffffffff811115610e6757610e66611728565b5b604051908082528060200260200182016040528015610e955781602001602082028036833780820191505090505b5090505f80600190505b6002548111610f34575f60065f8381526020019081526020015f20541115610f215780848381518110610ed557610ed4611755565b5b60200260200101818152505060065f8281526020019081526020015f2054838381518110610f0657610f05611755565b5b6020026020010181815250508180610f1d906116e1565b9250505b8080610f2c906116e1565b915050610e9f565b50828295509550505050509091565b60025481565b6003602052805f5260405f205f915054906101000a900473ffffffffffffffffffffffffffffffffffffffff1681565b5f80fd5b5f73ffffffffffffffffffffffffffffffffffffffff82169050919050565b5f610fa682610f7d565b9050919050565b610fb681610f9c565b8114610fc0575f80fd5b50565b5f81359050610fd181610fad565b92915050565b5f60208284031215610fec57610feb610f79565b5b5f610ff984828501610fc3565b91505092915050565b5f819050919050565b61101481611002565b82525050565b5f60208201905061102d5f83018461100b565b92915050565b61103c81611002565b8114611046575f80fd5b50565b5f8135905061105781611033565b92915050565b5f6020828403121561107257611071610f79565b5b5f61107f84828501611049565b91505092915050565b61109181610f9c565b82525050565b5f6020820190506110aa5f830184611088565b92915050565b5f81519050919050565b5f82825260208201905092915050565b5f819050602082019050919050565b6110e281611002565b82525050565b5f6110f383836110d9565b60208301905092915050565b5f602082019050919050565b5f611115826110b0565b61111f81856110ba565b935061112a836110ca565b805f5b8381101561115a57815161114188826110e8565b975061114c836110ff565b92505060018101905061112d565b5085935050505092915050565b5f6040820190508181035f83015261117f818561110b565b90508181036020830152611193818461110b565b90509392505050565b5f82825260208201905092915050565b7f596f7520646f6e2774206f776e2061207469636b65742e0000000000000000005f82015250565b5f6111e060178361119c565b91506111eb826111ac565b602082019050919050565b5f6020820190508181035f83015261120d816111d4565b9050919050565b7f506172746e657220646f6573206e6f74206f776e2061207469636b65742e00005f82015250565b5f611248601e8361119c565b915061125382611214565b602082019050919050565b5f6020820190508181035f8301526112758161123c565b9050919050565b7f4e6f2073776170206f666665722066726f6d20706172746e65722e00000000005f82015250565b5f6112b0601b8361119c565b91506112bb8261127c565b602082019050919050565b5f6020820190508181035f8301526112dd816112a4565b9050919050565b7f596f7520646f206e6f74206f776e2074686973207469636b65742e00000000005f82015250565b5f611318601b8361119c565b9150611323826112e4565b602082019050919050565b5f6020820190508181035f8301526113458161130c565b9050919050565b7f496e76616c6964207469636b65742049442e00000000000000000000000000005f82015250565b5f61138060128361119c565b915061138b8261134c565b602082019050919050565b5f6020820190508181035f8301526113ad81611374565b9050919050565b7f5469636b657420616c726561647920736f6c642e0000000000000000000000005f82015250565b5f6113e860148361119c565b91506113f3826113b4565b602082019050919050565b5f6020820190508181035f830152611415816113dc565b9050919050565b7f596f7520616c7265616479206f776e2061207469636b65742e000000000000005f82015250565b5f61145060198361119c565b915061145b8261141c565b602082019050919050565b5f6020820190508181035f83015261147d81611444565b9050919050565b7f496e636f7272656374207469636b65742070726963652e0000000000000000005f82015250565b5f6114b860178361119c565b91506114c382611484565b602082019050919050565b5f6020820190508181035f8301526114e5816114ac565b9050919050565b7f5469636b6574206e6f7420617661696c61626c6520666f7220726573616c652e5f82015250565b5f61152060208361119c565b915061152b826114ec565b602082019050919050565b5f6020820190508181035f83015261154d81611514565b9050919050565b7f496e636f727265637420726573616c652070726963652e0000000000000000005f82015250565b5f61158860178361119c565b915061159382611554565b602082019050919050565b5f6020820190508181035f8301526115b58161157c565b9050919050565b7f4e487b71000000000000000000000000000000000000000000000000000000005f52601260045260245ffd5b7f4e487b71000000000000000000000000000000000000000000000000000000005f52601160045260245ffd5b5f61162082611002565b915061162b83611002565b92508261163b5761163a6115bc565b5b828204905092915050565b5f61165082611002565b915061165b83611002565b9250828203905081811115611673576116726115e9565b5b92915050565b7f596f7520646f206e6f74206f776e2061207469636b65742e00000000000000005f82015250565b5f6116ad60188361119c565b91506116b882611679565b602082019050919050565b5f6020820190508181035f8301526116da816116a1565b9050919050565b5f6116eb82611002565b91507fffffffffffffffffffffffffffffffffffffffffffffffffffffffffffffffff820361171d5761171c6115e9565b5b600182019050919050565b7f4e487b71000000000000000000000000000000000000000000000000000000005f52604160045260245ffd5b7f4e487b71000000000000000000000000000000000000000000000000000000005f52603260045260245ffdfea26469706673582212206cd10b4a605d9d71b133254db238bff47ca66d6112817c9a520d56c0a500a6db64736f6c63430008150033",
  "immutableReferences": {},
  "source": "// SPDX-License-Identifier: MIT\npragma solidity ^0.8.17;\n\ncontract TicketSale {\n    address public manager;\n    uint public ticketPrice;\n    uint public totalTickets;\n\n    // Maps ticket ID to its owner\n    mapping(uint => address) public ticketOwners;\n\n    // Maps an address to the ticket ID they own\n    mapping(address => uint) public ownerToTicket;\n\n    // Mapping for swap offers: maps a ticket ID to the address that offered a swap\n    mapping(uint => address) public swapOffers;\n\n    // Mapping for resale tickets: maps a ticket ID to its resale price\n    mapping(uint => uint) public resaleTickets;\n\n    constructor(uint numTickets, uint price) {\n        manager = msg.sender;\n        ticketPrice = price;\n        totalTickets = numTickets;\n    }\n\n    // Buy a ticket with a specified ticket ID\n    function buyTicket(uint ticketId) public payable {\n        require(ticketId > 0 && ticketId <= totalTickets, \"Invalid ticket ID.\");\n        require(ticketOwners[ticketId] == address(0), \"Ticket already sold.\");\n        require(ownerToTicket[msg.sender] == 0, \"You already own a ticket.\");\n        require(msg.value == ticketPrice, \"Incorrect ticket price.\");\n\n        ticketOwners[ticketId] = msg.sender;\n        ownerToTicket[msg.sender] = ticketId;\n    }\n\n    // Get the ticket ID associated with an address\n    function getTicketOf(address person) public view returns (uint) {\n        return ownerToTicket[person];\n    }\n\n    // Offer a ticket swap\n    function offerSwap(uint ticketId) public {\n        require(ticketOwners[ticketId] == msg.sender, \"You do not own this ticket.\");\n        swapOffers[ticketId] = msg.sender;\n    }\n\n    // Accept a swap offer\n    function acceptSwap(uint partnerTicketId) public {\n        address partner = ticketOwners[partnerTicketId];\n        uint senderTicketId = getTicketOf(msg.sender);\n\n        require(senderTicketId != 0, \"You don't own a ticket.\");\n        require(partner != address(0), \"Partner does not own a ticket.\");\n        require(swapOffers[partnerTicketId] == partner, \"No swap offer from partner.\");\n\n        // Perform the ticket swap\n        ticketOwners[senderTicketId] = partner;\n        ticketOwners[partnerTicketId] = msg.sender;\n\n        ownerToTicket[msg.sender] = partnerTicketId;\n        ownerToTicket[partner] = senderTicketId;\n\n        // Remove the swap offer\n        delete swapOffers[partnerTicketId];\n    }\n\n    // Place a ticket on resale\n    function resaleTicket(uint price) public {\n        uint ticketId = getTicketOf(msg.sender);\n        require(ticketId != 0, \"You do not own a ticket.\");\n        \n        resaleTickets[ticketId] = price;\n    }\n\n    // Accept a resale offer\n    function acceptResale(uint ticketId) public payable {\n        uint resalePrice = resaleTickets[ticketId];\n        address currentOwner = ticketOwners[ticketId];\n\n        require(resalePrice > 0, \"Ticket not available for resale.\");\n        require(msg.value == resalePrice, \"Incorrect resale price.\");\n        require(ownerToTicket[msg.sender] == 0, \"You already own a ticket.\");\n        \n        uint serviceFee = resalePrice / 10;\n        uint refund = resalePrice - serviceFee;\n\n        // Transfer resale funds\n        payable(currentOwner).transfer(refund);\n        payable(manager).transfer(serviceFee);\n\n        // Transfer ticket ownership\n        ticketOwners[ticketId] = msg.sender;\n        ownerToTicket[msg.sender] = ticketId;\n\n        // Clear resale ticket record\n        delete resaleTickets[ticketId];\n        delete ownerToTicket[currentOwner];\n    }\n\n    // Check available resale tickets and their prices\n    function checkResale() public view returns (uint[] memory, uint[] memory) {\n        uint resaleCount = 0;\n        \n        // Count how many tickets are in resale\n        for (uint i = 1; i <= totalTickets; i++) {\n            if (resaleTickets[i] > 0) {\n                resaleCount++;\n            }\n        }\n        \n        // Prepare lists to return resale ticket IDs and prices\n        uint[] memory ticketIds = new uint[](resaleCount);\n        uint[] memory prices = new uint[](resaleCount);\n        \n        uint index = 0;\n        for (uint i = 1; i <= totalTickets; i++) {\n            if (resaleTickets[i] > 0) {\n                ticketIds[index] = i;\n                prices[index] = resaleTickets[i];\n                index++;\n            }\n        }\n        \n        return (ticketIds, prices);\n    }\n}\n\n\n\n\n\n/*\nCompiling your contracts...\n===========================\n> Compiling .\\contracts\\TicketSale.sol\n> Artifacts written to C:\\Users\\shish\\AppData\\Local\\Temp\\test--56028-EUvx4SmryceD\n> Compiled successfully using:\n   - solc: 0.8.17+commit.8df45f5f.Emscripten.clang\n\n\n  Contract: TicketSale\n     should allow a user to buy a ticket (867ms)\n    1) should not allow a user to buy a ticket if already owned\n\n    Events emitted during test:\n    ---------------------------\n\n    [object Object].TicketPurchased(\n      buyer: 0x4CdC0BeD748F5d67C3C557bf8d9a718A5F7f81AB of unknown class (type: address),\n      ticketId: 1 (type: uint256)\n    )\n\n\n    ---------------------------\n    2) should allow a ticket owner to offer a swap\n\n    Events emitted during test:\n    ---------------------------\n\n    [object Object].TicketPurchased(\n      buyer: 0x4CdC0BeD748F5d67C3C557bf8d9a718A5F7f81AB of unknown class (type: address),\n      ticketId: 1 (type: uint256)\n    )\n\n    [object Object].TicketPurchased(\n      buyer: 0x9095844f466B225f31bE6CbFd0157D06D2629A29 of unknown class (type: address),\n      ticketId: 2 (type: uint256)\n    )\n\n    [object Object].SwapOffered(\n      from: 0x4CdC0BeD748F5d67C3C557bf8d9a718A5F7f81AB of unknown class (type: address),\n      ticketId: 1 (type: uint256)\n    )\n\n\n    ---------------------------\n    3) should allow users to swap tickets\n\n    Events emitted during test:\n    ---------------------------\n\n    [object Object].TicketPurchased(\n      buyer: 0x4CdC0BeD748F5d67C3C557bf8d9a718A5F7f81AB of unknown class (type: address),\n      ticketId: 1 (type: uint256)\n    )\n\n    [object Object].TicketPurchased(\n      buyer: 0x9095844f466B225f31bE6CbFd0157D06D2629A29 of unknown class (type: address),\n      ticketId: 2 (type: uint256)\n    )\n\n    [object Object].SwapOffered(\n      from: 0x4CdC0BeD748F5d67C3C557bf8d9a718A5F7f81AB of unknown class (type: address),\n      ticketId: 1 (type: uint256)\n    )\n\n\n    ---------------------------\n     should allow a ticket owner to resale a ticket (1622ms)\n     should allow another user to buy a resale ticket (2556ms)\n\n\n  3 passing (16s)\n  \n\n*/",
  "sourcePath": "C:\\Users\\shish\\Desktop\\BC E\\TicketSale\\TicketSale\\contracts\\TicketSale.sol",
  "compiler": {
    "name": "solc",
    "version": "0.8.21+commit.d9974bed.Emscripten.clang"
  },
  "schemaVersion": "3.4.16",
  "updatedAt": "2024-11-04T04:04:07.984Z",
  "devdoc": {
    "kind": "dev",
    "methods": {},
    "version": 1
  },
  "userdoc": {
    "kind": "user",
    "methods": {},
    "version": 1
  }
}